:020000040800F2
:10000000000002200D310008C52E0008CB2E00088C
:10001000D12E0008D72E0008DD2E000800000000B9
:10002000000000000000000000000000717C0008DB
:10003000E32E000800000000C17E000849590008B6
:100040005D3100085D3100085D3100085D31000858
:100050005D3100085D3100085D3100085D31000848
:100060005D3100085D3100085D3100085D31000838
:100070005D3100085D3100085D3100085D31000828
:100080005D3100085D3100085D3100085D31000818
:100090005D3100085D3100085D3100085D31000808
:1000A0005D310008F12E00085D3100085D31000867
:1000B0005D3100085D3100085D3100085D310008E8
:1000C0005D3100085D3100085D3100085D310008D8
:1000D0005D3100085D3100085D3100085D310008C8
:1000E0005D3100085D3100085D3100085D310008B8
:1000F0005D3100085D3100085D3100085D310008A8
:100100005D3100085D3100085D3100085D31000897
:100110005D3100085D3100085D3100085D31000887
:100120005D3100085D3100085D3100085D31000877
:100130005D3100085D3100085D3100085D31000867
:100140005D3100085D3100085D3100085D31000857
:100150005D3100085D3100085D3100085D31000847
:100160005D3100085D3100085D3100085D31000837
:100170005D3100085D3100085D31000800000000BD
:080180005D3100085D3100084B
:1001900010B5054C237833B9044B13B10448AFF3C1
:1001A00000800123237010BDF80100200000000032
:1001B00038E0000808B5034B1BB103490348AFF30F
:1001C000008008BD00000000FC01002038E00008AD
:1001D00001F0FF01102A2BDB10F0070F08D010F8F8
:1001E000013B013A8B422DD010F0070F42B3F6D1FC
:1001F000F0B441EA012141EA014122F007047FF015
:1002000000070023F0E80256083C85EA010586EA6B
:10021000010685FA47F5A3FA87F586FA47F6A5FAA7
:1002200087F68EB9EED1F0BC01F0FF0102F00702B3
:1002300032B110F8013B013A83EA010313B1F8D15E
:100240000020704701387047002D06BF354603383F
:10025000073815F0010F07D1013015F4807F02BF78
:10026000013015F4C03F0130F0BC0138704700BFC9
:10027000034613F8012B002AFBD1181A01387047E6
:1002800081F0004102E000BF83F0004330B54FEA47
:1002900041044FEA430594EA050F08BF90EA020FB4
:1002A0001FBF54EA000C55EA020C7FEA645C7FEA47
:1002B000655C00F0E2804FEA5454D4EB5555B8BF6A
:1002C0006D420CDD2C4480EA020281EA030382EADB
:1002D000000083EA010180EA020281EA0303362D6D
:1002E00088BF30BD11F0004F4FEA01314FF4801C40
:1002F0004CEA113102D0404261EB410113F0004F52
:100300004FEA03334CEA133302D0524263EB430308
:1003100094EA050F00F0A780A4F10104D5F1200EA6
:100320000DDB02FA0EFC22FA05F2801841F1000101
:1003300003FA0EF2801843FA05F359410EE0A5F1D5
:1003400020050EF1200E012A03FA0EFC28BF4CF006
:10035000020C43FA05F3C01851EBE37101F00045BC
:1003600007D54FF0000EDCF1000C7EEB00006EEBC9
:100370000101B1F5801F1BD3B1F5001F0CD3490853
:100380005FEA30004FEA3C0C04F101044FEA4452AA
:1003900012F5800F80F09A80BCF1004F08BF5FEA31
:1003A000500C50F1000041EB045141EA050130BD11
:1003B0005FEA4C0C404141EB0101013C28BFB1F523
:1003C000801FE9D291F0000F04BF01460020B1FA6E
:1003D00081F308BF2033A3F10B03B3F120020CDA41
:1003E0000C3208DD02F1140CC2F10C0201FA0CF01F
:1003F00021FA02F10CE002F11402D8BFC2F1200C84
:1004000001FA02F120FA0CFCDCBF41EA0C01904039
:10041000E41AA2BF01EB0451294330BD6FEA040482
:100420001F3C1CDA0C340EDC04F11404C4F120026D
:1004300020FA04F001FA02F340EA030021FA04F37F
:1004400045EA030130BDC4F10C04C4F1200220FAD6
:1004500002F001FA04F340EA0300294630BD21FA14
:1004600004F0294630BD94F0000F83F4801306BFDA
:1004700081F480110134013D4EE77FEA645C18BFCE
:100480007FEA655C29D094EA050F08BF90EA020F65
:1004900005D054EA000C04BF1946104630BD91EA5D
:1004A000030F1EBF0021002030BD5FEA545C05D160
:1004B0004000494128BF41F0004130BD14F580049F
:1004C0003CBF01F5801130BD01F0004545F0FE4113
:1004D00041F470014FF0000030BD7FEA645C1ABF48
:1004E000194610467FEA655C1CBF0B46024650EA7F
:1004F000013406BF52EA033591EA030F41F40021AB
:1005000030BD00BF90F0000F04BF0021704730B530
:100510004FF4806404F132044FF000054FF0000105
:1005200050E700BF90F0000F04BF0021704730B5C6
:100530004FF4806404F1320410F0004548BF40429B
:100540004FF000013EE700BF42004FEAE2014FEAF0
:1005500031014FEA02701FBF12F07F4393F07F4FCB
:1005600081F06051704732F07F4208BF704793F0CE
:100570007F4F04BF41F40021704730B54FF46074E1
:1005800001F0004521F000411CE700BF50EA0102E4
:1005900008BF704730B54FF000050AE050EA01028D
:1005A00008BF704730B511F0004502D5404261EBFD
:1005B00041014FF4806404F132045FEA915C3FF43E
:1005C000D8AE4FF003025FEADC0C18BF03325FEADB
:1005D000DC0C18BF033202EBDC02C2F1200300FA8C
:1005E00003FC20FA02F001FA03FE40EA0E0021FAB1
:1005F00002F11444BDE600BF70B54FF0FF0C4CF49F
:10060000E06C1CEA11541DBF1CEA135594EA0C0F50
:1006100095EA0C0F00F0DEF82C4481EA030621EA8B
:100620004C5123EA4C5350EA013518BF52EA0335C6
:1006300041F4801143F4801338D0A0FB02CE4FF078
:100640000005E1FB02E506F00042E0FB03E54FF0A8
:100650000006E1FB03569CF0000F18BF4EF0010EA0
:10066000A4F1FF04B6F5007F64F5407404D25FEA9C
:100670004E0E6D4146EB060642EAC62141EA55514F
:100680004FEAC52040EA5E504FEACE2EB4F1FD0C91
:1006900088BFBCF5E06F1ED8BEF1004F08BF5FEA0F
:1006A000500E50F1000041EB045170BD06F00046C1
:1006B00046EA010140EA020081EA0301B4EB5C046E
:1006C000C2BFD4EB0C0541EA045170BD41F4801166
:1006D0004FF0000E013C00F3AB8014F1360FDEBF8B
:1006E000002001F0004170BDC4F10004203C35DA67
:1006F0000C341BDC04F11404C4F1200500FA05F3EA
:1007000020FA04F001FA05F240EA020001F000428A
:1007100021F0004110EBD37021FA04F642EB060100
:100720005EEA430E08BF20EAD37070BDC4F10C042A
:10073000C4F1200500FA04F320FA05F001FA04F2EE
:1007400040EA020001F0004110EBD37041F10001DA
:100750005EEA430E08BF20EAD37070BDC4F12005E5
:1007600000FA05F24EEA020E20FA04F301FA05F24D
:1007700043EA020321FA04F001F0004121FA04F2F5
:1007800020EA020000EBD3705EEA430E08BF20EAC5
:10079000D37070BD94F0000F0FD101F000464000FF
:1007A00041EB010111F4801F08BF013CF7D041EA81
:1007B000060195F0000F18BF704703F00046520085
:1007C00043EB030313F4801F08BF013DF7D043EA56
:1007D0000603704794EA0C0F0CEA135518BF95EA0C
:1007E0000C0F0CD050EA410618BF52EA4306D1D193
:1007F00081EA030101F000414FF0000070BD50EAB2
:10080000410606BF1046194652EA430619D094EA3B
:100810000C0F02D150EA013613D195EA0C0F05D125
:1008200052EA03361CBF104619460AD181EA030179
:1008300001F0004141F0FE4141F470014FF0000031
:1008400070BD41F0FE4141F4780170BD70B54FF0CC
:10085000FF0C4CF4E06C1CEA11541DBF1CEA13554C
:1008600094EA0C0F95EA0C0F00F0A7F8A4EB05042E
:1008700081EA030E52EA03354FEA013100F0888025
:100880004FEA03334FF0805545EA131343EA1263EE
:100890004FEA022245EA111545EA10654FEA0026A3
:1008A0000EF000419D4208BF964244F1FD0404F55C
:1008B000407402D25B084FEA3202B61A65EB0305B8
:1008C0005B084FEA32024FF480104FF4002CB6EB75
:1008D000020E75EB030E22BFB61A754640EA0C00F5
:1008E0005B084FEA3202B6EB020E75EB030E22BF35
:1008F000B61A754640EA5C005B084FEA3202B6EB76
:10090000020E75EB030E22BFB61A754640EA9C0034
:100910005B084FEA3202B6EB020E75EB030E22BF04
:10092000B61A754640EADC0055EA060E18D04FEAC2
:10093000051545EA16754FEA06164FEAC30343EA62
:1009400052734FEAC2025FEA1C1CC0D111F4801F2F
:100950000BD141EA00014FF000004FF0004CB6E728
:1009600011F4801F04BF01430020B4F1FD0C88BFC7
:10097000BCF5E06F3FF6AFAEB5EB030C04BFB6EBD2
:10098000020C5FEA500C50F1000041EB045170BDC5
:100990000EF0004E4EEA113114EB5C04C2BFD4EBF2
:1009A0000C0541EA045170BD41F480114FF0000E76
:1009B000013C90E645EA060E8DE60CEA135594EAF2
:1009C0000C0F08BF95EA0C0F3FF43BAF94EA0C0FF5
:1009D0000AD150EA01347FF434AF95EA0C0F7FF46A
:1009E00025AF104619462CE795EA0C0F06D152EABE
:1009F00003353FF4FDAE1046194622E750EA4106A2
:100A000018BF52EA43067FF4C5AE50EA41047FF4B2
:100A10000DAF52EA43057FF4EBAE12E74FF0FF3C17
:100A200006E000BF4FF0010C02E000BF4FF0010CE8
:100A30004DF804CD4FEA410C7FEA6C5C4FEA430C61
:100A400018BF7FEA6C5C1BD001B050EA410C0CBFB0
:100A500052EA430C91EA030F02BF90EA020F002012
:100A6000704710F1000F91EA030F58BF994208BF79
:100A700090422CBFD8176FEAE37040F00100704736
:100A80004FEA410C7FEA6C5C02D150EA013C07D18D
:100A90004FEA430C7FEA6C5CD6D152EA033CD3D0D8
:100AA0005DF8040B704700BF8446104662468C46D2
:100AB0001946634600E000BF01B5FFF7B7FF002805
:100AC00048BF10F1000F01BD4DF808EDFFF7F4FF2E
:100AD0000CBF012000205DF808FB00BF4DF808EDB9
:100AE000FFF7EAFF34BF012000205DF808FB00BFDC
:100AF0004DF808EDFFF7E0FF94BF012000205DF8FE
:100B000008FB00BF4DF808EDFFF7CEFF94BF0120B2
:100B100000205DF808FB00BF4DF808EDFFF7C4FFAB
:100B200034BF012000205DF808FB00BF4FEA410CF4
:100B30007FEA6C5C02D150EA013C0AD14FEA430CD7
:100B40007FEA6C5C02D152EA033C02D14FF0000014
:100B500070474FF0010070474FEA410212F5001252
:100B600015D211D56FF47873B3EB625212D94FEAF4
:100B7000C12343F0004343EA505311F0004F23FADE
:100B800002F018BF404270474FF00000704750EA33
:100B9000013005D111F0004008BF6FF000407047F0
:100BA0004FF00000704700BF4A0011D212F500124A
:100BB00011D20DD56FF47873B3EB62520ED44FEAB5
:100BC000C12343F0004343EA505323FA02F0704735
:100BD0004FF00000704750EA013002D14FF0FF3073
:100BE00070474FF0000070474FEA4102B2F1E04316
:100BF00024BFB3F5001CDCF1FE5C0DD901F0004C04
:100C00004FEAC0024CEA5070B2F1004F40EB830053
:100C100008BF20F00100704711F0804F21D113F17F
:100C20003872BCBF01F00040704741F480114FEAB8
:100C30005252C2F11802C2F1200C10FA0CF320FA41
:100C400002F018BF40F001004FEAC1234FEAD3235E
:100C500003FA0CFC40EA0C0023FA02F34FEA4303C8
:100C6000CCE77FEA625307D150EA01331EBF4FF051
:100C7000FE4040F44000704701F0004040F0FE406C
:100C800040F40000704700BF53B94AB9002908BFBB
:100C900000281CBF4FF0FF314FF0FF3000F0A6B925
:100CA000ADF1080C6DE904CE00F03CF8DDF804E08D
:100CB000DDE9022304B0704738B500220023044662
:100CC0000D46FFF70BFF28B920462946BDE83840FE
:100CD00000F00AB8204605F1004100F005F8404256
:100CE00061EB410138BD00BFD0B50C4B0022064678
:100CF0000F46FFF781FCFFF757FF0446FFF702FCA2
:100D0000074B0022FFF778FC02460B463046394677
:100D1000FFF7BAFAFFF748FF2146D0BD0000F03DCB
:100D20000000F0412DE9F047089E0D4604460F46AD
:100D3000002B4AD18A42944665D9B2FA82F343B174
:100D400002FA03FCC3F120029F4020FA02F217438B
:100D50009C404FEA1C4E1FFA8CF5B7FBFEF1220CAB
:100D60000EFB117742EA074201FB05F090420AD9D7
:100D70001CEB020201F1FF3780F01C81904240F22F
:100D8000198102396244121AA4B2B2FBFEF00EFBC2
:100D9000102244EA024400FB05F5A5420AD91CEBE7
:100DA000040400F1FF3280F00781A54240F2048183
:100DB0006444023840EA0140641B00211EB1DC405B
:100DC0000023C6E90043BDE8F0878B4208D9002E16
:100DD00000F0ED800021C6E900050846BDE8F08777
:100DE000B3FA83F1002949D1AB4202D3824200F227
:100DF000F880841A65EB030201201746002EE2D02A
:100E0000C6E90047DFE702B9FFDEB2FA82F3002B42
:100E100040F090808A1A4FEA1C471FFA8CFE01218D
:100E2000B2FBF7F507FB1520220C42EA00420EFB4D
:100E300005F0904208D91CEB020205F1FF3802D2FE
:100E4000904200F2CB804546121AA4B2B2FBF7F0F2
:100E500007FB102244EA02440EFB00FEA64508D917
:100E60001CEB040400F1FF3202D2A64500F2BB8065
:100E70001046A4EB0E0440EA05409FE7C1F12007AD
:100E80008B4022FA07FC4CEA030C05FA01F420FA25
:100E900007F3FD404FEA1C492343B5FBF9F81FFA5D
:100EA0008CFE09FB18551C0C44EA054408FB0EF5A2
:100EB000A54202FA01F200FA01F00BD91CEB04047E
:100EC00008F1FF3A80F08880A54240F28580A8F1C1
:100ED00002086444641B9DB2B4FBF9F309FB13449C
:100EE00045EA044403FB0EFEA64508D91CEB0404A6
:100EF00003F1FF356CD2A6456AD9023B644443EA4C
:100F00000843A3FB0295A4EB0E04AC42C846AE46D0
:100F100056D353D056B1B0EB080264EB0E0404FA7A
:100F200007F7CA40CC401743C6E9007418460021B1
:100F3000BDE8F087C3F1200102FA03FC20FA01F2B8
:100F400025FA01F19D402A434FEA1C471FFA8CFE07
:100F5000B1FBF7F007FB1015110C41EA054100FB4E
:100F60000EF58D4204FA03F408D91CEB010100F1DF
:100F7000FF382FD28D422DD902386144491B92B2DD
:100F8000B1FBF7F507FB151142EA014205FB0EF133
:100F9000914208D91CEB020205F1FF3816D29142AA
:100FA00014D9023D6244521A45EA004138E73146FD
:100FB000304608E73946E6E61046FBE64845A9D242
:100FC000B9EB020865EB0C0E013BA3E74546EAE7E7
:100FD0002B4694E74046D1E7D0467BE7023D62448A
:100FE00032E708460AE76444023842E7704700BF28
:100FF000B0B584B000AF78607B68032B29D07B68E4
:10100000032B36DC7B68012B03D07B68022B10D0CE
:101010002FE0614B1B78002B02D04FF6FF7200E0EF
:1010200000225E4B1B685A625B4B1A785C4B1A704D
:101030001FE05C4B1B78002B02D04FF6FF7200E0E4
:101040000022594B1B685A62564B1A78544B1A703F
:101050000FE0564B1B78002B02D04FF6FF7200E0DA
:101060000022534B1B685A62504B1A784C4B1A7033
:1010700000BF4B4B1B78184600F0DAF805F032FE43
:10108000F86029E07B68032B17D07B68032B1BDCFF
:101090007B68012B03D07B68022B07D014E03F4B09
:1010A0001B685B6A9AB2434B1A800DE03E4B1B688B
:1010B0005B6A9AB23F4B1A8006E03D4B1B685B6A45
:1010C0009AB23C4B1A8000BF3A4B1B88344A1278C4
:1010D0001146184600F078F805F004FE0246FB6859
:1010E000D31A0A2BCED9344B1B681846FFF71AFACD
:1010F00025A3D3E90023FFF77FFA02460B461446E7
:101100001D46274B1B78002B08D02A4B1B88C3F5A4
:101110007F43FF331846FFF705FA04E0254B1B8891
:101120001846FFF7EFF922462B46FFF7AFF80246C5
:101130000B461046194616A3D3E90023FFF786FB9A
:1011400002460B46104619464FF000021B4BFFF7B4
:1011500053FA02460B46104619464FF00002184B50
:10116000FFF74AFA02460B461649C1E90023154B20
:10117000D3E9002343EC172BB0EE470AF0EE670AE1
:101180001037BD46B0BD00BF0000000000BDEF40FD
:101190000000000000F3E640000000208402002070
:1011A0002802002001000020CC02002002000020C4
:1011B00014030020200200202402002000005940D7
:1011C00000004E401802002080B483B000AF0346F8
:1011D0000A46FB8013467B717B7983F00103DBB207
:1011E000002B0DD0104B1B88FA889A4204D20F4B6B
:1011F0001B6801330D4A13600B4AFB8813800CE017
:10120000094B1B88FA889A4204D9084B1B680133A2
:10121000064A1360044AFB88138000BF0C37BD46A2
:101220005DF8047B704700BF2202002024020020EA
:1012300080B483B000AF0346FB71094B00221A60F3
:10124000FB79002B02D04FF6FF7200E00022054B25
:101250001A8000BF0C37BD465DF8047B704700BFA5
:10126000240200202202002080B500AF1A4914A3F6
:10127000D3E90023C1E90023174913A3D3E90023CD
:10128000C1E90223144912A3D3E90023C1E90423CD
:10129000124BD3E900231049C1E90823104BD3E9CD
:1012A00000230D49C1E90A230E4BD3E900230A4963
:1012B000C1E90C23084801F009F900BF80BD00BF57
:1012C000333333333333D33F9A9999999999C93F3B
:1012D0007B14AE47E17A743FF803002078040020C5
:1012E000800400208804002080B500AF01F038FFA2
:1012F00000F05EF800F0DCFA00F0F8F800F04EF9CB
:1013000000F0A0F900F0F2F900F070FA00F0B8F87F
:101310001C4B1B686422DA631A4B1B6864221A6434
:10132000194B1B6864225A630821164803F098FA87
:101330000C21144803F094FA0021134803F090FAAA
:101340000421124803F0FAFB0421114803F0F6FBD4
:101350000421104803F0F2FB04F010FB0E4A0021B8
:101360000E4804F055FB03460D4A13600D4A002158
:101370000D4804F04DFB03460C4A136004F022FBB9
:10138000FEE700BF5C030020A403002084020020CD
:10139000CC0200201403002074E00008A51C000803
:1013A000EC03002098E000083D1D0008F003002039
:1013B00080B594B000AF07F1200330220021184619
:1013C00007F0C7FF07F10C0300221A605A609A6009
:1013D000DA601A610023BB60274B1B6C264A43F07E
:1013E00080531364244B1B6C03F08053BB60BB68B9
:1013F00000237B60214B1B68204A43F48043136029
:101400001E4B1B6803F480437B607B6802233B62B6
:101410000123FB6210233B630223BB630023FB63B6
:1014200008233B6440237B640223BB640423FB64E6
:1014300007F12003184602F06DF90346002B01D096
:1014400000F098FC0F23FB6002233B61A0237B612B
:101450000023BB610023FB6107F10C030021184648
:1014600002F0D0FB0346002B01D000F083FC00BF4C
:101470005037BD4680BD00BF0038024000700040BC
:1014800080B500AF174B184A1A60164B4FF48272A2
:101490005A60144B00229A60124B0022DA60114B02
:1014A00002221A610F4B01225A610E4B4FF4007257
:1014B0009A610C4B2822DA610A4B80221A62094B8E
:1014C00000225A62074B00229A62064B0A22DA6215
:1014D000044802F095FD0346002B01D000F04AFCC1
:1014E00000BF80BD2C020020003C004080B58CB0C5
:1014F00000AF07F10C0324220021184607F029FF52
:101500003B1D00221A605A60224B234A1A60214B6D
:1015100000225A601F4B00229A601E4B4FF6FF724A
:10152000DA601C4B00221A611A4B00225A61194BD7
:1015300000229A610323FB6000233B6101237B614E
:101540000023BB610023FB6100233B6201237B621C
:101550000023BB620023FB6207F10C0319460D4810
:1015600003F046FA0346002B01D000F003FC0023F1
:101570007B600023BB603B1D1946064804F02AF936
:101580000346002B01D000F0F5FB00BF3037BD460D
:1015900080BD00BF840200200000014080B58CB0F7
:1015A00000AF07F10C0324220021184607F0D1FEFA
:1015B0003B1D00221A605A60204B214A1A601F4BC3
:1015C00000225A601D4B00229A601C4B4FF6FF729E
:1015D000DA601A4B00221A61184B00229A61032329
:1015E000FB6000233B6101237B610023BB6100237F
:1015F000FB6100233B6201237B620023BB6200236B
:10160000FB6207F10C0319460C4803F0F1F903469D
:10161000002B01D000F0AEFB00237B600023BB60F9
:101620003B1D1946054804F0D5F80346002B01D0B0
:1016300000F0A0FB00BF3037BD4680BDCC020020CB
:101640000004004080B58CB000AF07F10C032422E9
:101650000021184607F07DFE3B1D00221A605A60EB
:10166000204B214A1A601F4B00225A601D4B00225A
:101670009A601C4B4FF6FF72DA601A4B00221A6117
:10168000184B00229A610323FB6000233B61012376
:101690007B610023BB610023FB6100233B620123CC
:1016A0007B620023BB620023FB6207F10C03194637
:1016B0000C4803F09DF90346002B01D000F05AFBC3
:1016C00000237B600023BB603B1D1946054804F0E6
:1016D00081F80346002B01D000F04CFB00BF3037EF
:1016E000BD4680BD140300200008004080B58EB0C8
:1016F00000AF07F1280300221A605A609A60DA608E
:1017000007F1200300221A605A603B1D00221A6074
:101710005A609A60DA601A615A619A61314B324AB2
:101720001A60304B07225A602E4B00229A602D4BD4
:101730006322DA602B4B00221A612A4B00229A6145
:10174000284802F073FF0346002B01D000F012FB83
:101750004FF48053BB6207F128031946214803F078
:101760002DFC0346002B01D000F004FB1D4803F0C4
:101770001DF80346002B01D000F0FCFA00233B6269
:1017800000237B6207F120031946164804F022F873
:101790000346002B01D000F0EDFA60237B600023AC
:1017A000BB600023FB6000237B613B1D08221946C0
:1017B0000C4803F041FB0346002B01D000F0DAFA9D
:1017C0003B1D0C221946074803F036FB0346002B4D
:1017D00001D000F0CFFA034801F0A0FA00BF38377B
:1017E000BD4680BD5C030020000C004080B58CB07D
:1017F00000AF07F1200300221A605A609A60DA6095
:101800003B1D00221A605A609A60DA601A615A61C0
:101810009A61254B254A1A60234B07225A60224BB6
:1018200000229A60204B6322DA601F4B00221A616B
:101830001D4B00229A611C4802F0F8FE0346002B63
:1018400001D000F097FA4FF480533B6207F1200378
:101850001946154803F0B2FB0346002B01D000F0F7
:1018600089FA114802F0A2FF0346002B01D000F0D4
:1018700081FA60237B600023BB600023FB600023B0
:101880007B613B1D00221946074803F0D5FA034649
:10189000002B01D000F06EFA034801F03FFA00BFC0
:1018A0003037BD4680BD00BFA4030020004001408A
:1018B00080B58CB000AF07F11C0300221A605A609B
:1018C0009A60DA601A610023BB613F4B1B6B3E4A92
:1018D00043F0100313633C4B1B6B03F01003BB611D
:1018E000BB6900237B61384B1B6B374A43F0800395
:1018F0001363354B1B6B03F080037B617B69002313
:101900003B61314B1B6B304A43F0010313632E4B99
:101910001B6B03F001033B613B690023FB602A4B17
:101920001B6B294A43F008031363274B1B6B03F01F
:101930000803FB60FB680023BB60234B1B6B224A40
:1019400043F004031363204B1B6B03F00403BB60E1
:10195000BB6800237B601C4B1B6B1B4A43F00203DC
:101960001363194B1B6B03F002037B607B6800223F
:101970001021164801F0B4FE00224FF460411448D3
:1019800001F0AEFE1023FB6101233B6200237B626A
:101990000023BB6207F11C0319460C4801F004FD4B
:1019A0004FF46043FB6101233B6200237B62002311
:1019B000BB6207F11C031946054801F0F5FC00BFA6
:1019C0003037BD4680BD00BF0038024000000240F5
:1019D000001002400000000080B586B000AF034652
:1019E00087ED020B87ED001BFB75214B1B78012B4C
:1019F0000BD14FF000021F4BD7E90201FEF726FF83
:101A000002460B46C7E9022302E0194B1B78002B64
:101A10009FED112B97ED001B97ED020B00F0B0F935
:101A2000FB7D7F2B0AD0DF2B11D19FED0D2B9FED7E
:101A30000A1B9FED090B00F0A3F908E09FED0A2BAC
:101A40009FED051B9FED040B00F09AF900BF00BF4E
:101A50001837BD4680BD00BF000000000000000038
:101A6000333333333333D3BF333333333333D33F6E
:101A70007004002000408F4080B483B000AF034664
:101A8000FB71FB79F72B02D0FB2B04D007E0074B4F
:101A900000221A7003E0054B01221A7000BF00BF3C
:101AA0000C37BD465DF8047B704700BF7004002012
:101AB00080B586B000AF87ED020B87ED001BD7E93C
:101AC0000223D7E90001FEF7C1FE02460B4643ECB4
:101AD000172BB0EE470AF0EE670A0BF075F887EDAA
:101AE000040B3BA3D3E90023D7E90401FEF784FDEF
:101AF00002460B46104619464FF00002304BFEF7E7
:101B0000C3FB02460B462F49C1E900234FF00002F8
:101B10004FF00003D7E90201FEF7E0FF0346002B78
:101B20000CD0284BD3E900014FF00002264BFEF702
:101B3000ADFB02460B462349C1E900234FF00002EA
:101B40004FF00003D7E90201FEF7DCFF0346002B4C
:101B500017D04FF000024FF00003D7E90001FEF765
:101B6000BDFF0346002B0CD0164BD3E900014FF00C
:101B70000002164BFEF78AFB02460B461149C1E9EB
:101B80000023104BD3E900014FF000024FF0000397
:101B9000FEF7A4FF0346002B00D10CE0094BD3E96C
:101BA00000014FF00002094BFEF770FB02460B46A6
:101BB0000449C1E9002300BF1837BD4680BD00BFFE
:101BC00000003E40680400200080664000807640AF
:101BD00018B1531ADCA54C402DE9B04F84B000AFCA
:101BE00078607B6807331B78FB737B6808331B784E
:101BF000BB73FB7B803BDBB2FB73BB7BC3F17F031F
:101C0000DBB2BB7397F90F301846FEF78BFC024628
:101C10000B46904623F0004997F90E301846FEF720
:101C200081FC02460B46924623F0004B52465B462F
:101C300040464946FEF766FF0346002B0AD097F957
:101C40000F301846FEF76EFC02460B46144623F092
:101C5000004509E097F90E301846FEF763FC02468E
:101C60000B46144623F000450D4BC3E9004597F998
:101C70000F301846FEF756FC04460D4697F90E3015
:101C80001846FEF74FFC02460B4643EC112B45EC81
:101C9000104BFFF70DFF00BF1037BD46BDE8B08FFA
:101CA0006004002080B588B002AF78600023FB603C
:101CB00007F1100300221A601A7144F201233B81DC
:101CC00000221021194801F00BFD07F10C0207F169
:101CD00008010A2300930923154802F01AFA012289
:101CE0001021124801F0FCFC7B7B732B1AD107F109
:101CF0000C031846FFF770FF3B7C1846FFF7BCFE4D
:101D0000FB7B0C4A92ED007B0B4A92ED006BB0EE30
:101D1000461AF0EE661AB0EE470AF0EE670A184669
:101D2000FFF75AFE642003F005FFBFE70000024002
:101D30002C020020600400206804002080B582B0DE
:101D400000AF786000F0C4FD322003F0F3FEF9E745
:101D500080B582B000AF78607B681B68044A93420C
:101D600001D101F01FFA00BF0837BD4680BD00BF9A
:101D70000044014080B400AF72B600BFFEE700002F
:101D80002DE9B04F92B000AF87ED060B87ED041B35
:101D900087ED022B96A3D3E90023D7E90401FEF7D0
:101DA0002BFC02460B46104619464FF00002944B9E
:101DB000FEF74CFD02460B4643EC172BB0EE470AEC
:101DC000F0EE670A0BF0A0F851EC100B86A3D3E9F4
:101DD0000023FEF711FC02460B46C7E9002384A34B
:101DE000D3E90023D7E90401FEF706FC02460B46BF
:101DF000104619464FF00002814BFEF727FD0246C0
:101E00000B4643EC172BB0EE470AF0EE670A0BF0D7
:101E1000DBF851EC100B4FF000027A4BFEF7ECFBB5
:101E200002460B46D7E90001FEF72EFA02460B46A2
:101E300010461946D7E90623FEF7DEFB02460B469D
:101E400010461946D7E90223FEF720FA02460B4650
:101E50006D49C1E9002366A3D3E90023D7E9040152
:101E6000FEF7CAFB02460B46104619464FF0000229
:101E7000634BFEF7EBFC02460B4643EC172BB0EE30
:101E8000470AF0EE670A0BF03FF851EC100B5AA32B
:101E9000D3E90023FEF7B0FB02460B46C7E9002357
:101EA00053A3D3E90023D7E90401FEF7A5FB0246BB
:101EB0000B46104619464FF00002514BFEF7C6FC88
:101EC00002460B4643EC172BB0EE470AF0EE670ACA
:101ED0000BF07AF851EC100B4FF00002494BFEF773
:101EE0008BFB02460B46D7E90001FEF7CDF902460F
:101EF0000B4610461946D7E90623FEF77DFB02463E
:101F00000B4610461946D7E90223FEF7BFF90246F1
:101F10000B463E49C1E9002335A3D3E90023D7E9A5
:101F20000401FEF769FB02460B46104619464FF0C6
:101F30000002334BFEF78AFC02460B4643EC172B9C
:101F4000B0EE470AF0EE670A0BF03EF851EC100BCA
:101F5000D7E90623FEF750FB02460B46104619460A
:101F6000D7E90223FEF792F902460B462849C1E958
:101F70000023274BD3E900231146396423F00043A3
:101F80007B64214BD3E900231146B96323F000435E
:101F9000FB631E4BD3E900231146396323F0004352
:101FA0007B63D7E91023C7E90A23D7E90A23D7E9D6
:101FB0000E01FEF7B1FD0346002B02D0D7E90E2338
:101FC00001E0D7E90A23C7E90A23D7E90A23D7E9B9
:101FD0000C01FEF7A1FD0346002B1BD0D7E90C2313
:101FE0001AE000BFAFF30080D7A3703D0AD7EBBF64
:101FF00050455254FB210940D7A3703D0AD7EB3F0F
:10200000008066400000E03F80040020880400203B
:1020100078040020D7E90A23C7E90A234FF0000219
:10202000754BD7E90A01FEF777FD0346002B2ED04A
:10203000D7E90A234FF000006F49FEF707FC02467C
:102040000B46C7E908236D4BD3E90001D7E9082304
:10205000FEF7D2FA02460B466849C1E90023684BF5
:10206000D3E90001D7E90823FEF7C6FA02460B467A
:102070006349C1E90023634BD3E90001D7E9082391
:10208000FEF7BAFA02460B465E49C1E900235B4BF4
:10209000D3E900014FF000024FF00003FEF71EFDF0
:1020A0000346002B0DD00021012000F08BF9534B8B
:1020B000D3E90023924623F0004B504BC3E900AB19
:1020C0000FE04E4BD3E900014FF000024FF0000348
:1020D000FEF722FD0346002B03D00121012000F072
:1020E00071F9474BD3E900014FF000024FF00003B4
:1020F000FEF7F4FC0346002B0DD00021022000F077
:1021000061F93F4BD3E90023904623F000493C4B53
:10211000C3E900890FE03A4BD3E900014FF0000218
:102120004FF00003FEF7F8FC0346002B03D001211B
:10213000022000F047F9334BD3E900014FF00002D1
:102140004FF00003FEF7CAFC0346002B0DD0002120
:10215000032000F037F92B4BD3E90023144623F07A
:102160000045284BC3E900450FE0264BD3E90001A9
:102170004FF000024FF00003FEF7CEFC0346002BA9
:1021800003D00121032000F01DF91C4B93ED007BCF
:10219000B0EE470AF0EE670A00F072F9B0EE407A4E
:1021A000F0EE607A154B83ED007B154B93ED007BD1
:1021B000B0EE470AF0EE670A00F062F9B0EE407A3E
:1021C000F0EE607A0E4B83ED007B0E4B93ED007BBF
:1021D000B0EE470AF0EE670A00F052F9B0EE407A2E
:1021E000F0EE607A074B83ED007BFFF73DF800BF10
:1021F0004837BD46BDE8B08F000008407804002095
:10220000800400208804002080B584B000AFF8600E
:1022100087ED000BFB68012B32D1514BD3E9000154
:10222000D7E90023FEF730F802460B464C49C1E9D6
:1022300000234B4BD3E900014FF00002494BFEF75E
:102240006BFC0346002B03D04FF00002454B13E01C
:10225000434BD3E900014FF000024FF00003FEF7BB
:102260003DFC0346002B04D04FF000024FF000036A
:1022700002E03B4BD3E900233949C1E900236AE07E
:10228000FB68022B32D1384BD3E90001D7E9002398
:10229000FDF7FAFF02460B463349C1E90023324BF2
:1022A000D3E900014FF000022E4BFEF735FC034648
:1022B000002B03D04FF000022A4B13E02A4BD3E946
:1022C00000014FF000024FF00003FEF707FC034649
:1022D000002B04D04FF000024FF0000302E0224B2D
:1022E000D3E900232049C1E9002334E0FB68032B34
:1022F00031D11E4BD3E90001D7E90023FDF7C4FF1C
:1023000002460B461949C1E90023184BD3E90001E5
:102310004FF00002134BFEF7FFFB0346002B03D0E8
:102320004FF000020F4B13E0104BD3E900014FF0C8
:1023300000024FF00003FEF7D1FB0346002B04D050
:102340004FF000024FF0000302E0084BD3E90023F6
:102350000649C1E9002300BF1037BD4680BD00BF5C
:102360000800002000005940100000201800002044
:1023700090B587B000AF87ED040B87ED021B87EDAA
:10238000002B0E4B1C68D7E90401FEF70DFC034639
:10239000E3630A4B1C68D7E90201FEF705FC03461C
:1023A0002364074B1C68D7E90001FEF7FDFB0346D9
:1023B000636300BF1C37BD4690BD00BF5C030020B7
:1023C000A403002080B582B000AF786039607B68DC
:1023D000012B15D13B68012B09D101224FF400419B
:1023E000224801F07DF9224B01221A7008E00022F8
:1023F0004FF400411D4801F073F91D4B00221A7083
:102400007B68022B15D13B68012B09D101224FF4C7
:102410008041164801F064F9164B01221A7008E059
:1024200000224FF48041114801F05AF9114B00226B
:102430001A707B68032B15D13B68012B09D101224F
:102440004FF40051094801F04BF90B4B01221A706F
:1024500008E000224FF40051044801F041F9064B16
:1024600000221A7000BF0837BD4680BD0010024030
:1024700000000020010000200200002000000000F9
:1024800080B582B000AF87ED000B0EA3D3E9002327
:10249000D7E90001FEF7DAF902460B461046194665
:1024A0004FF00002064BFEF7A7F802460B4643EC3E
:1024B000172BB0EE470AF0EE670A0837BD4680BD1D
:1024C00000004E408A42305B9F20D83F80B483B0EA
:1024D00000AF78607B68D3E900231349C1E900238A
:1024E0007B68D3E902231149C1E900237B68D3E962
:1024F00004230F49C1E900237B68D3E908230D4970
:10250000C1E900237B68D3E90A230B49C1E9002311
:102510007B68D3E90C230949C1E9002300BF0C37CC
:10252000BD465DF8047B70479004002098040020AD
:10253000A0040020A8040020B0040020B80400205B
:102540002DE9B04F8AB000AF87ED080B87ED061B71
:1025500087ED042B87ED023B87ED004BD7E908019F
:10256000FEF722FB0346DBB2002B07D14FF000023F
:10257000504BC7E90623D7E9062391E0D7E90623A4
:10258000D7E90801FDF780FE02460B464A49C1E93A
:1025900000234A4BD3E90045474BD3E90001D7E973
:1025A0000023FDF771FE02460B4620462946FEF742
:1025B00023F802460B4610461946D7E90423FDF7D7
:1025C00065FE02460B4614461D463C4BD3E902010C
:1025D000394BD3E90023FEF70FF802460B4620469D
:1025E0002946FDF753FE02460B4692469B46334B67
:1025F000D3E90445304BD3E90089D7E9000102460D
:102600000B46FDF743FE02460B4640464946FDF7A2
:102610003BFE02460B4610461946D7E90223FDF75A
:1026200035FE02460B4620462946FDF7E5FF0246E9
:102630000B4650465946FDF729FE02460B46C7E9B0
:102640000623D7E90023C7E902231B4BD3E9002364
:10265000C7E900234FF00002194BD7E90601FEF746
:102660005BFA0346002B03D04FF00002144B01E04D
:10267000D7E90623C7E906234FF00002114BD7E93B
:102680000601FEF72BFA0346002B03D04FF00002A1
:102690000C4B01E0D7E90623C7E90623D7E9062357
:1026A00043EC172BB0EE470AF0EE670A2837BD4619
:1026B000BDE8B08F00003EC0C0040020F803002039
:1026C00000002440000024C080B483B000AF7860D4
:1026D0007B68032B2FD07B68032B3FDC7B68012BAF
:1026E00003D07B68022B13D038E01F4BD3E90023C3
:1026F0001E49C1E900231E4BD3E900231D49C1E94E
:1027000000231D4BD3E900231C49C1E9002325E028
:10271000154BD3E900231A49C1E90023144BD3E92F
:1027200000231849C1E90023134BD3E900231649BC
:10273000C1E9002312E00C4BD3E900231349C1E99E
:1027400000230B4BD3E900231149C1E900230A4BB5
:10275000D3E900230F49C1E9002300BF00BF0C37B4
:10276000BD465DF8047B7047080500201005002079
:10277000E0040020C804002000050020E804002038
:1027800018050020D0040020F004002020050020BF
:10279000D8040020F804002080B584B000AFF860B1
:1027A00087ED000BFB68032B4DD0FB68032B6CDC23
:1027B000FB68012B03D0FB68022B22D065E0384B6D
:1027C00093ED007B374B93ED006B374B93ED005B44
:1027D000364B93ED004BB0EE453AF0EE653AB0EE75
:1027E000462AF0EE662A97ED001BB0EE470AF0EE9F
:1027F000670AFFF7A5FE87ED000B0120FFF764FFD6
:1028000043E02B4B93ED007B2A4B93ED006B2A4B5F
:1028100093ED005B294B93ED004BB0EE453AF0EEA3
:10282000653AB0EE462AF0EE662A97ED001BB0EE50
:10283000470AF0EE670AFFF783FE87ED000B0220E0
:10284000FFF742FF21E01E4B93ED007B1D4B93ED04
:10285000006B1D4B93ED005B1C4B93ED004BB0EEFA
:10286000453AF0EE653AB0EE462AF0EE662A97ED6C
:10287000001BB0EE470AF0EE670AFFF761FE87ED36
:10288000000B0320FFF720FF00BFD7E9002343EC34
:10289000172BB0EE470AF0EE670A1037BD4680BD31
:1028A000A804002010050020C8040020E80400202F
:1028B000B004002018050020D0040020F0040020FF
:1028C000B804002020050020D8040020F8040020CF
:1028D00080B500AF0120FEF78BFBB0EE407AF0EE42
:1028E000607A404B83ED007B0220FEF781FBB0EE67
:1028F000407AF0EE607A3C4B83ED007B0320FEF7DC
:1029000077FBB0EE407AF0EE607A384B83ED007BD7
:10291000344B93ED007BB0EE470AF0EE670A0120DE
:10292000FFF73AFFB0EE407AF0EE607A304B83ED7D
:10293000007B2D4B93ED007BB0EE470AF0EE670A6B
:102940000220FFF729FFB0EE407AF0EE607A294BC3
:1029500083ED007B254B93ED007BB0EE470AF0EE54
:10296000670A0320FFF718FFB0EE407AF0EE607AB6
:10297000214B83ED007B1E4B93ED007BB0EE470AAD
:10298000F0EE670A0120FFF73FFC1A4B93ED007B46
:10299000B0EE470AF0EE670A0220FFF735FC164B4F
:1029A00093ED007BB0EE470AF0EE670A0320FFF7D5
:1029B0002BFC124B93ED007B114B93ED006B114BF5
:1029C00093ED005BB0EE452AF0EE652AB0EE461AB4
:1029D000F0EE661AB0EE470AF0EE670AFFF7C8FCA1
:1029E00000BF80BD4804002050040020580400208F
:1029F000300400203804002040040020080000209B
:102A0000100000201800002080B582B000AF002325
:102A10007B60124B5B6C114A43F4804353640F4B51
:102A20005B6C03F480437B607B6800233B600B4B53
:102A30001B6C0A4A43F080531364084B1B6C03F071
:102A400080533B603B6800220F216FF0010000F0D3
:102A500081FC00BF0837BD4680BD00BF0038024082
:102A600080B58AB000AF786007F1140300221A60C5
:102A70005A609A60DA601A617B681B68284A934240
:102A80004AD100233B61274B1B6C264A43F4004389
:102A90001364244B1B6C03F400433B613B6900232C
:102AA000FB60204B1B6B1F4A43F0040313631D4B59
:102AB0001B6B03F00403FB60FB680023BB60194B36
:102AC0001B6B184A43F002031363164B1B6B03F096
:102AD0000203BB60BB684FF440637B610223BB61B0
:102AE0000023FB6103233B6206237B6207F114038F
:102AF00019460D4800F058FC20237B610223BB617E
:102B00000023FB6103233B6206237B6207F114036E
:102B10001946064800F048FC00BF2837BD4680BD76
:102B2000003C00400038024000080240000402401F
:102B300080B58EB000AF786007F1240300221A60E0
:102B40005A609A60DA601A617B681B68504A934247
:102B500035D100233B624F4B5B6C4E4A43F001037F
:102B600053644C4B5B6C03F001033B623B6A0023F4
:102B7000FB61484B1B6B474A43F010031363454B03
:102B80001B6B03F01003FB61FB694FF420637B6256
:102B90000223BB620023FB6200233B6301237B63B0
:102BA00007F1240319463C4800F0FEFB00220F21E8
:102BB000192000F0CFFB192000F0E8FB63E07B68F0
:102BC0001B68364A93422CD10023BB61314B1B6CEE
:102BD000304A43F0020313642E4B1B6C03F00203D4
:102BE000BB61BB6900237B612A4B1B6B294A43F005
:102BF00001031363274B1B6B03F001037B617B69AC
:102C0000C0237B620223BB620023FB6200233B6381
:102C100002237B6307F124031946214800F0C4FB1B
:102C200031E07B681B681F4A93422CD100233B6133
:102C3000184B1B6C174A43F004031364154B1B6CB1
:102C400003F004033B613B690023FB60114B1B6BEA
:102C5000104A43F0080313630E4B1B6B03F0080389
:102C6000FB60FB684FF440537B620223BB6200238E
:102C7000FB6200233B6302237B6307F124031946B5
:102C8000094800F091FB00BF3837BD4680BD00BF4A
:102C900000000140003802400010024000040040E3
:102CA0000000024000080040000C024080B485B0E3
:102CB00000AF78607B681B68154A93420ED10023F1
:102CC000FB60144B1B6C134A43F008031364114B55
:102CD0001B6C03F00803FB60FB6812E07B681B6859
:102CE0000D4A93420DD10023BB600A4B5B6C094A2D
:102CF00043F480335364074B5B6C03F48033BB6055
:102D0000BB6800BF1437BD465DF8047B704700BF49
:102D1000000C0040003802400040014080B58AB0FD
:102D200000AF786007F1140300221A605A609A60BD
:102D3000DA601A617B681B68244A93421ED1002323
:102D40003B61234B1B6B224A43F001031363204B6F
:102D50001B6B03F001033B613B690C237B61022386
:102D6000BB610023FB6100233B6202237B6207F10E
:102D700014031946174800F017FB22E07B681B6814
:102D8000154A93421DD10023FB60114B1B6B104A67
:102D900043F0100313630E4B1B6B03F01003FB6037
:102DA000FB6820237B610223BB610023FB610023BE
:102DB0003B6203237B6207F114031946074800F0C6
:102DC000F3FA00BF2837BD4680BD00BF000C0040AD
:102DD0000038024000000240004001400010024064
:102DE00080B58CB000AF78600023BB6200237B62AB
:102DF0000023BB602E4B5B6C2D4A43F400335364BD
:102E00002B4B5B6C03F40033BB60BB6807F10C0217
:102E100007F110031146184601F0C0F801F0AAF8B6
:102E2000B862BB6A234AA2FB03239B0C013B7B6273
:102E3000214B224A1A60204B40F2E732DA601E4AE8
:102E40007B6A53601C4B00221A611B4B00229A6064
:102E5000194B00229A61184801F0E8FB034687F8F5
:102E60002F3097F82F30002B1BD1134801F02EFC88
:102E7000034687F82F3097F82F30002B11D11920F7
:102E800000F084FA7B680F2B08D80022796819209B
:102E900000F060FA0A4A7B68136002E0012387F8B9
:102EA0002F3097F82F3018463037BD4680BD00BF11
:102EB0000038024083DE1B43280500200044014007
:102EC0002400002080B400AFFEE780B400AFFEE72E
:102ED00080B400AFFEE780B400AFFEE780B400AF7F
:102EE000FEE780B400AF00BFBD465DF8047B7047CD
:102EF00080B500AF034801F0AFFE034801F0ACFE1F
:102F000000BF80BD840200202805002080B483B06B
:102F100000AF0346FB710F4B1B680E4A43F08073F2
:102F200013600D4B1B680C4A43F00103136000BF94
:102F30004FF060431B6803F00103002BF8D04FF003
:102F40006042FB79136000BF0C37BD465DF8047B1F
:102F5000704700BFFCED00E0000E00E080B400AF61
:102F600001231846BD465DF8047B704780B582B0EA
:102F700000AF7860396006F03FFA034616221A6007
:102F80004FF0FF3318460837BD4680BD80B582B08C
:102F900000AF78604FF0FF317868FFF7E7FFFEE79A
:102FA00080B586B000AFF860B9607A6000237B61BD
:102FB0000AE0AFF300800146BB685A1CBA60CAB28F
:102FC0001A707B6901337B617A697B689A42F0DB16
:102FD0007B6818461837BD4680BD80B586B000AF07
:102FE000F860B9607A6000237B6109E0BB685A1C15
:102FF000BA601B781846FFF789FF7B6901337B6154
:103000007A697B689A42F1DB7B6818461837BD46BF
:1030100080BD80B483B000AF78604FF0FF331846B6
:103020000C37BD465DF8047B704780B483B000AFB9
:10303000786039603B684FF400525A6000231846AC
:103040000C37BD465DF8047B704780B483B000AF99
:103050007860012318460C37BD465DF8047B704745
:1030600080B485B000AFF860B9607A60002318467C
:103070001437BD465DF8047B7047000080B586B00C
:1030800000AF7860144A154BD31A7B617B693B61B2
:10309000134B1B68002B02D1114B124A1A60104BC4
:1030A0001A687B6813443A699A4207D206F0A4F979
:1030B00003460C221A604FF0FF3309E0084B1B68EF
:1030C000FB60074B1A687B681344054A1360FB6872
:1030D00018461837BD4680BD0000022000040000DD
:1030E000700500201850002080B400AF064BD3F8C4
:1030F0008830054A43F47003C2F8883000BFBD46EB
:103100005DF8047B704700BF00ED00E0DFF834D0CD
:10311000FFF7EAFF0C480D490D4A002302E0D4589E
:10312000C4500433C4188C42F9D30A4A0A4C002311
:1031300001E013600432A242FBD306F063F9FEF70C
:10314000D3F870470000022000000020F8010020A2
:1031500028E70008F801002014500020FEE70000D6
:1031600080B500AF0E4B1B680D4A43F4007313602B
:103170000B4B1B680A4A43F480631360084B1B68BF
:10318000074A43F480731360032000F0D8F80F203F
:10319000FFF726FEFFF738FC0023184680BD00BF6E
:1031A000003C024080B400AF064B1B781A46064B29
:1031B0001B681344044A136000BFBD465DF8047BDE
:1031C000704700BF280000207405002080B400AFC5
:1031D000034B1B681846BD465DF8047B704700BF73
:1031E0007405002080B485B000AF78607B6803F080
:1031F0000703FB600C4BDB68BB60BA684FF6FF034C
:103200001340BB60FB681A02BB68134343F0BF6303
:1032100043F40033BB60044ABB68D36000BF14377B
:10322000BD465DF8047B704700ED00E080B400AF60
:10323000044BDB681B0A03F007031846BD465DF824
:10324000047B704700ED00E080B483B000AF03461C
:10325000FB7197F90730002B0BDBFB7903F01F02A2
:10326000074997F907305B09012000FA02F241F89B
:10327000232000BF0C37BD465DF8047B704700BFBC
:1032800000E100E080B483B000AF03463960FB7119
:1032900097F90730002B0ADB3B68DAB20C4997F943
:1032A00007301201D2B20B4483F800230AE03B68D6
:1032B000DAB20849FB7903F00F03043B1201D2B2E2
:1032C0000B441A7600BF0C37BD465DF8047B70478F
:1032D00000E100E000ED00E080B489B000AFF860EC
:1032E000B9607A60FB6803F00703FB61FB69C3F117
:1032F0000703042B28BF0423BB61FB690433062B9F
:1033000002D9FB69033B00E000237B614FF0FF32F1
:10331000BB6902FA03F3DA43BB681A407B699A403F
:103320004FF0FF317B6901FA03F3D9437B680B400F
:10333000134318462437BD465DF8047B704780B5BB
:1033400082B000AF78607868FFF74CFF00BF0837A5
:10335000BD4680BD80B586B000AF0346B9607A60D7
:10336000FB7300237B61FFF761FF78617A68B968BE
:103370007869FFF7B1FF024697F90F3011461846FA
:10338000FFF780FF00BF1837BD4680BD80B582B013
:1033900000AF0346FB7197F907301846FFF754FF5B
:1033A00000BF0837BD4680BD80B489B000AF7860EB
:1033B000396000237B6100233B610023BB61002354
:1033C000FB616BE10122FB6902FA03F37B613B685D
:1033D0001B687A6913403B613A697B699A4240F005
:1033E0005A813B685B6803F00303012B05D03B68FF
:1033F0005B6803F00303022B30D17B689B68BB61E1
:10340000FB695B00032202FA03F3DB43BA69134052
:10341000BB613B68DA68FB695B0002FA03F3BA69D7
:103420001343BB617B68BA699A607B685B68BB6168
:103430000122FB6902FA03F3DB43BA691340BB6163
:103440003B685B681B0903F00102FB6902FA03F3A6
:10345000BA691343BB617B68BA695A603B685B68B1
:1034600003F00303032B17D07B68DB68BB61FB69A8
:103470005B00032202FA03F3DB43BA691340BB612A
:103480003B689A68FB695B0002FA03F3BA6913436D
:10349000BB617B68BA69DA603B685B6803F0030371
:1034A000022B23D1FB69DA087B68083253F82230FB
:1034B000BB61FB6903F007039B000F2202FA03F3D1
:1034C000DB43BA691340BB613B681A69FB6903F0CF
:1034D00007039B0002FA03F3BA691343BB61FB695C
:1034E000DA087B680832B96943F822107B681B68E8
:1034F000BB61FB695B00032202FA03F3DB43BA6999
:103500001340BB613B685B6803F00302FB695B002F
:1035100002FA03F3BA691343BB617B68BA691A60A4
:103520003B685B6803F44033002B00F0B480002359
:10353000FB60604B5B6C5F4A43F4804353645D4BBC
:103540005B6C03F48043FB60FB685B4AFB699B0890
:10355000023352F82330BB61FB6903F003039B0085
:103560000F2202FA03F3DB43BA691340BB617B68A5
:10357000524A93422BD07B68514A934225D07B68B4
:10358000504A93421FD07B684F4A934219D07B68C0
:103590004E4A934213D07B684D4A93420DD07B68CC
:1035A0004C4A934207D07B684B4A934201D1072390
:1035B0000EE008230CE006230AE0052308E00423BC
:1035C00006E0032304E0022302E0012300E00023DD
:1035D000FA6902F0030292009340BA691343BB6197
:1035E0003549FB699B080233BA6941F823203B4BFC
:1035F0009B68BB613B69DB43BA691340BB613B68B5
:103600005B6803F48013002B03D0BA693B69134352
:10361000BB61324ABB699360304BDB68BB613B697D
:10362000DB43BA691340BB613B685B6803F400137A
:10363000002B03D0BA693B691343BB61274ABB69BE
:10364000D360264B5B68BB613B69DB43BA691340BF
:10365000BB613B685B6803F40033002B03D0BA699D
:103660003B691343BB611D4ABB6953601B4B1B681D
:10367000BB613B69DB43BA691340BB613B685B6874
:1036800003F48033002B03D0BA693B691343BB6159
:10369000124ABB691360FB690133FB61FB690F2BA5
:1036A0007FF690AE00BF00BF2437BD465DF8047BB7
:1036B000704700BF0038024000380140000002405F
:1036C0000004024000080240000C024000100240CA
:1036D0000014024000180240001C0240003C01405F
:1036E00080B483B000AF78600B467B8013467B705C
:1036F0007B78002B03D07A887B689A6103E07B8813
:103700001A047B689A6100BF0C37BD465DF8047BE4
:103710007047000080B586B000AF78607B68002BF2
:1037200001D1012367E27B681B6803F00103002BD2
:1037300075D0884B9B6803F00C03042B0CD0854B91
:103740009B6803F00C03082B12D1824B5B6803F4D7
:103750008003B3F5800F0BD17E4B1B6803F400335D
:10376000002B5BD07B685B68002B57D1012342E2C2
:103770007B685B68B3F5803F06D1764B1B68754A62
:1037800043F4803313601DE07B685B68B3F5A02FC2
:103790000CD1704B1B686F4A43F4802313606D4B50
:1037A0001B686C4A43F4803313600BE0694B1B6861
:1037B000684A23F480331360664B1B68654A23F420
:1037C000802313607B685B68002B13D0FFF7FEFC3F
:1037D000386108E0FFF7FAFC02463B69D31A642B14
:1037E00001D9032307E25B4B1B6803F40033002B72
:1037F000F0D014E0FFF7EAFC386108E0FFF7E6FCE0
:1038000002463B69D31A642B01D90323F3E1514BE0
:103810001B6803F40033002BF0D100E000BF7B688D
:103820001B6803F00203002B63D04A4B9B6803F034
:103830000C03002B0BD0474B9B6803F00C03082BA9
:103840001CD1444B5B6803F48003002B16D1414B21
:103850001B6803F00203002B05D07B68DB68012B9B
:1038600001D00123C7E13B4B1B6823F0F8027B68C2
:103870001B69DB00374913430B603AE07B68DB6868
:10388000002B20D0344B01221A60FFF79FFC3861D7
:1038900008E0FFF79BFC02463B69D31A022B01D9D3
:1038A0000323A8E12B4B1B6803F00203002BF0D08D
:1038B000284B1B6823F0F8027B681B69DB00254955
:1038C00013430B6015E0244B00221A60FFF77EFCC7
:1038D000386108E0FFF77AFC02463B69D31A022BF5
:1038E00001D9032387E11B4B1B6803F00203002B64
:1038F000F0D17B681B6803F00803002B36D07B688F
:103900005B69002B16D0154B01221A60FFF75EFC95
:10391000386108E0FFF75AFC02463B69D31A022BD4
:1039200001D9032367E10B4B5B6F03F00203002B0C
:10393000F0D01BE0094B00221A60FFF747FC38610A
:103940000EE0FFF743FC02463B69D31A022B07D96E
:10395000032350E10038024000004742800E4742F6
:10396000884B5B6F03F00203002BEAD17B681B6876
:1039700003F00403002B00F097800023FB75814BBC
:103980001B6C03F08053002B0FD10023BB607D4BD9
:103990001B6C7C4A43F0805313647A4B1B6C03F01E
:1039A0008053BB60BB680123FB75774B1B6803F436
:1039B0008073002B18D1744B1B68734A43F48073D7
:1039C0001360FFF703FC386108E0FFF7FFFB0246D6
:1039D0003B69D31A022B01D903230CE16A4B1B6804
:1039E00003F48073002BF0D07B689B68012B06D119
:1039F000644B1B6F634A43F0010313671CE07B6851
:103A00009B68052B0CD15F4B1B6F5E4A43F0040390
:103A100013675C4B1B6F5B4A43F0010313670BE0BA
:103A2000584B1B6F574A23F001031367554B1B6F0D
:103A3000544A23F0040313677B689B68002B15D05E
:103A4000FFF7C4FB38610AE0FFF7C0FB02463B69A1
:103A5000D31A41F28832934201D90323CBE0494B78
:103A60001B6F03F00203002BEED014E0FFF7AEFB58
:103A700038610AE0FFF7AAFB02463B69D31A41F21C
:103A80008832934201D90323B5E03E4B1B6F03F00C
:103A90000203002BEED1FB7D012B05D1394B1B6CB2
:103AA000384A23F0805313647B689B69002B00F035
:103AB000A180344B9B6803F00C03082B5CD07B681F
:103AC0009B69022B41D1314B00221A60FFF77EFB2C
:103AD000386108E0FFF77AFB02463B69D31A022BF4
:103AE00001D9032387E0274B1B6803F00073002BE9
:103AF000F0D17B68DA697B681B6A1A437B685B6A72
:103B00009B011A437B689B6A5B08013B1B041A43B9
:103B10007B68DB6A1B061B4913434B601B4B01226E
:103B20001A60FFF753FB386108E0FFF74FFB0246CE
:103B30003B69D31A022B01D903235CE0114B1B68AC
:103B400003F00073002BF0D054E0104B00221A60F9
:103B5000FFF73CFB386108E0FFF738FB02463B69A2
:103B6000D31A022B01D9032345E0064B1B6803F04F
:103B70000073002BF0D13DE07B689B69012B07D1DE
:103B8000012338E0003802400070004060004742E6
:103B90001B4B5B68FB607B689B69012B28D0FB6833
:103BA00003F480027B68DB699A4221D1FB6803F051
:103BB0003F027B681B6A9A421AD1FA6847F6C073C3
:103BC00013407A68526A9201934211D1FB6803F460
:103BD00040327B689B6A5B08013B1B049A4207D119
:103BE000FB6803F070627B68DB6A1B069A4201D0B7
:103BF000012300E0002318461837BD4680BD00BFF2
:103C00000038024080B584B000AF786039607B68CE
:103C1000002B01D10123CCE0684B1B6803F00703A4
:103C20003A689A420CD9654B3A68D2B21A70634B23
:103C30001B6803F007033A689A4201D00123B8E0F9
:103C40007B681B6803F00203002B20D07B681B6895
:103C500003F00403002B05D0594B9B68584A43F4EA
:103C6000E05393607B681B6803F00803002B05D0CA
:103C7000534B9B68524A43F460439360504B9B689C
:103C800023F0F0027B689B684D4913438B607B688F
:103C90001B6803F00103002B44D07B685B68012B99
:103CA00007D1474B1B6803F40033002B19D10123C4
:103CB0007FE07B685B68022B03D07B685B68032B2B
:103CC00007D13F4B1B6803F00073002B09D1012380
:103CD0006FE03B4B1B6803F00203002B01D1012373
:103CE00067E0374B9B6823F003027B685B683449CD
:103CF00013438B60FFF76AFAF8600AE0FFF766FA91
:103D00000246FB68D31A41F28832934201D9032359
:103D10004FE02B4B9B6803F00C027B685B689B00B9
:103D20009A42EBD1254B1B6803F007033A689A428D
:103D30000CD2224B3A68D2B21A70204B1B6803F0A7
:103D400007033A689A4201D0012332E07B681B687E
:103D500003F00403002B08D0194B9B6823F4E052B6
:103D60007B68DB68164913438B607B681B6803F034
:103D70000803002B09D0124B9B6823F460427B6838
:103D80001B69DB000E4913438B6000F021F80246EB
:103D90000B4B9B681B0903F00F030A49CB5C22FA0B
:103DA00003F3094A1360094B1B681846FFF718F81C
:103DB000002318461037BD4680BD00BF003C0240BE
:103DC00000380240BCE00008200000202400002051
:103DD0002DE9B04F90B000AF00237B630023FB635D
:103DE00000233B630023BB63594B9B6803F00C0328
:103DF000082B0DD0082B00F2A180002B02D0042B41
:103E000003D09BE0534BBB639BE0534BBB6398E0F9
:103E10004F4B5B6803F03F037B634D4B5B6803F4E0
:103E20008003002B28D04A4B5B689B0900223B6231
:103E30007A623B6AC3F308000021474B03FB01F29F
:103E4000002300FB03F31344434AA0FB0212FA626F
:103E50000A46BA62FA6A1344FB627B6B0022BB61BA
:103E6000FA61D7E90623D7E90A01FCF70DFF0246FC
:103E70000B461346FB6353E0354B5B689B090022FE
:103E80003B617A613B69C3F3080A4FF0000B52466D
:103E90005B464FF000004FF00001590141EAD2614A
:103EA000500102460B46B2EB0A0863EB0B094FF0D8
:103EB00000024FF000034FEA891343EA98634FEA88
:103EC0008812B2EB080463EB09054FF000024FF0D3
:103ED0000003EB0043EA5473E20014461D4614EB62
:103EE0000A033B6045EB0B037B604FF000024FF091
:103EF0000003D7E9004529468B02214643EA915346
:103F000021468A02104619467B6B0022BB60FA608C
:103F1000D7E90223FCF7B8FE02460B461346FB63C3
:103F20000B4B5B681B0C03F0030301335B003B632B
:103F3000FA6B3B6BB2FBF3F3BB6302E0054BBB6375
:103F400000BFBB6B18464037BD46BDE8B08F00BF11
:103F5000003802400024F40040787D0180B400AFB6
:103F6000034B1B681846BD465DF8047B704700BFD5
:103F70002000002080B500AFFFF7F0FF0246054BA0
:103F80009B685B0B03F007030349CB5C22FA03F346
:103F9000184680BD00380240CCE0000880B483B0F1
:103FA00000AF786039607B680F221A60124B9B6803
:103FB00003F003027B685A600F4B9B6803F0F0022A
:103FC0007B689A600C4B9B6803F4E0527B68DA6074
:103FD000094B9B68DB0803F4E0527B681A61074BCE
:103FE0001B6803F007023B681A6000BF0C37BD4630
:103FF0005DF8047B704700BF00380240003C02407F
:1040000080B582B000AF78607B68002B01D10123BE
:104010007BE07B685B6A002B08D17B685B68B3F54B
:10402000827F09D07B680022DA6105E07B6800228C
:104030001A617B6800225A617B6800229A627B6861
:1040400093F85130DBB2002B06D17B68002283F855
:1040500050207868FEF704FD7B68022283F8512027
:104060007B681B681A687B681B6822F040021A6034
:104070007B685B6803F482727B689B6803F404438B
:104080001A437B68DB6803F400631A437B681B698F
:1040900003F002031A437B685B6903F001031A43D0
:1040A0007B689B6903F400731A437B68DB6903F048
:1040B00038031A437B681B6A03F0800342EA03015A
:1040C0007B689B6A03F400527B681B680A431A6092
:1040D0007B689B691B0C03F004017B685B6A03F03F
:1040E00010027B681B680A435A607B681B68DA69A8
:1040F0007B681B6822F40062DA617B6800225A65E3
:104100007B68012283F85120002318460837BD46FA
:1041100080BD80B58CB000AFF860B9607A607B80FC
:104120000123FB62002387F82B30FB6893F85030A3
:10413000012B01D1022398E1FB68012283F8502072
:10414000FFF744F87862FB6893F8513087F8233022
:10415000FB685B68FB617B887B8397F82330012BCE
:104160000FD0FB69B3F5827F07D1FB689B68002BFA
:1041700003D197F82330042B03D0022387F82B3088
:104180006DE1BB68002B05D07B68002B02D07B88DB
:10419000002B03D1012387F82B3060E1FB6893F8F3
:1041A0005130DBB2042B03D0FB68052283F8512089
:1041B000FB6800225A65FB687A689A63FB687A8814
:1041C000DA87FB687A889A87FB68BA681A63FB68A3
:1041D0007A88DA86FB687A889A86FB6800221A64F5
:1041E000FB6800225A64FB681B681B6803F04003ED
:1041F000402B07D0FB681B681A68FB681B6842F0FD
:1042000040021A60FB68DB68B3F5006F7CD1FB6885
:104210005B68002B02D07B8B012B6AD1FB681B6B88
:104220001A88FB681B68DA60FB681B6B9A1CFB68CA
:104230001A63FB68DB8E9BB2013B9AB2FB68DA869D
:1042400057E0FB681B689B6803F00203022B1BD13D
:10425000FB68DB8E9BB2002B16D0FB6A012B13D1BF
:10426000FB681B6B1A88FB681B68DA60FB681B6BBA
:104270009A1CFB681A63FB68DB8E9BB2013B9AB207
:10428000FB68DA860023FB62FB681B689B6803F00F
:104290000103012B19D1FB68DB8F9BB2002B14D0DB
:1042A000FB681B68DA68FB689B6B92B21A80FB683C
:1042B0009B6B9A1CFB689A63FB68DB8F9BB2013B8C
:1042C0009AB2FB68DA870123FB62FEF77FFF0246A2
:1042D0007B6AD31ABA6B9A420BD8BB6BB3F1FF3F20
:1042E00007D0032387F82B30FB68012283F8512085
:1042F000B5E0FB68DB8E9BB2002BA2D1FB68DB8FA5
:104300009BB2002B9DD180E0FB685B68002B02D044
:104310007B8B012B6FD1FB681A6BFB681B680C331E
:1043200012781A70FB681B6B5A1CFB681A63FB68D7
:10433000DB8E9BB2013B9AB2FB68DA865BE0FB68DE
:104340001B689B6803F00203022B1CD1FB68DB8E09
:104350009BB2002B17D0FB6A012B14D1FB681A6BA0
:10436000FB681B680C3312781A70FB681B6B5A1CB5
:10437000FB681A63FB68DB8E9BB2013B9AB2FB6859
:10438000DA860023FB62FB681B689B6803F001036D
:10439000012B19D1FB68DB8F9BB2002B14D0FB687B
:1043A0001B68DA68FB689B6BD2B21A70FB689B6B68
:1043B0005A1CFB689A63FB68DB8F9BB2013B9AB285
:1043C000FB68DA870123FB62FEF700FF02467B6A87
:1043D000D31ABA6B9A4203D8BB6BB3F1FF3F02D139
:1043E000BB6B002B07D1032387F82B30FB6801221E
:1043F00083F8512033E0FB68DB8E9BB2002B9ED10B
:10440000FB68DB8F9BB2002B99D17A6AB96BF86895
:1044100000F0B8F80346002B06D0012387F82B30B4
:10442000FB6820225A651AE0FB689B68002B0AD1C2
:1044300000237B61FB681B68DB687B61FB681B6892
:104440009B687B617B69FB685B6D002B03D001235C
:1044500087F82B3003E0FB68012283F85120FB68CA
:10446000002283F8502097F82B3018463037BD468D
:1044700080BD000080B588B000AFF860B9603B60D7
:104480001346FB71FEF7A2FE0246BB6A9B1A3A680E
:104490001344FB61FEF79AFEB861394B1B685B0160
:1044A0001B0DFA6902FB03F37B6154E03B68B3F137
:1044B000FF3F50D0FEF78AFE0246BB69D31AFA6965
:1044C0009A4202D9FB69002B3DD1FB681B685A68F0
:1044D000FB681B6822F0E0025A60FB685B68B3F57A
:1044E000827F11D1FB689B68B3F5004F04D0FB6855
:1044F0009B68B3F5806F07D1FB681B681A68FB687F
:104500001B6822F040021A60FB689B6AB3F5005FEB
:104510000FD1FB681B681A68FB681B6822F4005205
:104520001A60FB681B681A68FB681B6842F400523B
:104530001A60FB68012283F85120FB68002283F88F
:104540005020032317E07B69002B01D10023FB617E
:104550007B69013B7B61FB681B689A68BB68134001
:10456000BA689A420CBF01230023DBB21A46FB79DA
:104570009A429BD1002318462037BD4680BD00BF1C
:104580002000002080B588B002AFF860B9607A6082
:104590007B680093BB6801220221F868FFF76AFF7D
:1045A0000346002B07D0FB685B6D43F02002FB68DD
:1045B0005A65032332E01B4B1B681B4AA2FB0323F3
:1045C0005B0D4FF47A7202FB03F37B61FB685B685F
:1045D000B3F5827F12D17B680093BB6800228021F3
:1045E000F868FFF747FF0346002B16D0FB685B6DAA
:1045F00043F02002FB685A6503230FE07B69002B20
:104600000AD07B69013B7B61FB681B689B6803F0F8
:104610008003802BF2D000E000BF0023184618373B
:10462000BD4680BD20000020819F5E1680B582B00F
:1046300000AF78607B68002B01D1012341E07B68EB
:1046400093F83D30DBB2002B06D17B68002283F863
:104650003C207868FEF72AFB7B68022283F83D2025
:104660007B681A687B6804331946104600F096FD93
:104670007B68012283F846207B68012283F83E2074
:104680007B68012283F83F207B68012283F8402069
:104690007B68012283F841207B68012283F8422055
:1046A0007B68012283F843207B68012283F8442041
:1046B0007B68012283F845207B68012283F83D2036
:1046C000002318460837BD4680BD000080B485B081
:1046D00000AF78607B6893F83D30DBB2012B01D0EE
:1046E00001234EE07B68022283F83D207B681B6833
:1046F000DA687B681B6842F00102DA607B681B683D
:10470000234A934222D07B681B68B3F1804F1DD0AF
:104710007B681B681F4A934218D07B681B681E4A3F
:10472000934213D07B681B681C4A93420ED07B686F
:104730001B681B4A934209D07B681B68194A934245
:1047400004D07B681B68184A934211D17B681B68B0
:104750009B6803F00703FB60FB68062B10D07B68A7
:104760001B681A687B681B6842F001021A6007E048
:104770007B681B681A687B681B6842F001021A603C
:10478000002318461437BD465DF8047B704700BF10
:10479000000001400004004000080040000C004000
:1047A00000040140004001400018004080B582B084
:1047B00000AF78607B68002B01D1012341E07B686A
:1047C00093F83D30DBB2002B06D17B68002283F8E2
:1047D0003C20786800F039F87B68022283F83D209D
:1047E0007B681A687B6804331946104600F0D6FCD3
:1047F0007B68012283F846207B68012283F83E20F3
:104800007B68012283F83F207B68012283F84020E7
:104810007B68012283F841207B68012283F84220D3
:104820007B68012283F843207B68012283F84420BF
:104830007B68012283F845207B68012283F83D20B4
:10484000002318460837BD4680BD80B483B000AF52
:10485000786000BF0C37BD465DF8047B70470000F0
:1048600080B584B000AF786039603B68002B09D117
:104870007B6893F83E30DBB2012B14BF0123002389
:10488000DBB222E03B68042B09D17B6893F83F3010
:10489000DBB2012B14BF01230023DBB215E03B6820
:1048A000082B09D17B6893F84030DBB2012B14BF91
:1048B00001230023DBB208E07B6893F84130DBB2D0
:1048C000012B14BF01230023DBB2002B01D00123F5
:1048D0007CE03B68002B04D17B68022283F83E20F9
:1048E00013E03B68042B04D17B68022283F83F204D
:1048F0000BE03B68082B04D17B68022283F8402040
:1049000003E07B68022283F841207B681B68012258
:104910003968184600F038FF7B681B682D4A9342BF
:1049200004D07B681B682C4A934201D1012300E02C
:104930000023002B07D07B681B685A6C7B681B68C0
:1049400042F400425A647B681B68224A934222D098
:104950007B681B68B3F1804F1DD07B681B681F4AC2
:10496000934218D07B681B681D4A934213D07B6822
:104970001B681C4A93420ED07B681B68164A934200
:1049800009D07B681B68184A934204D07B681B6877
:10499000164A934211D17B681B689B6803F007039A
:1049A000FB60FB68062B10D07B681B681A687B686D
:1049B0001B6842F001021A6007E07B681B681A68F6
:1049C0007B681B6842F001021A600023184610370A
:1049D000BD4680BD000001400004014000040040CD
:1049E00000080040000C004000400140001800405A
:1049F00080B586B000AF786039607B68002B01D14C
:104A0000012397E07B6893F83D30DBB2002B06D1A1
:104A10007B68002283F83C207868FEF789F87B6881
:104A2000022283F83D207B681B689B687A681268C5
:104A300023F4804323F0070393607B681A687B6844
:104A400004331946104600F0A9FB7B681B689B687D
:104A50007B617B681B689B693B617B681B681B6A89
:104A6000FB603B681B687A6913437B613B6923F4F5
:104A7000407323F003033B613B689A683B689B6982
:104A80001B0213433A6913433B613B6923F44063C0
:104A900023F00C033B613B6923F4704323F0F003E4
:104AA0003B613B68DA683B68DB691B0213433A6988
:104AB00013433B613B681B691A013B681B6A1B037C
:104AC00013433A6913433B61FB6823F02203FB6005
:104AD000FB6823F08803FB603B685A683B685B69AE
:104AE0001B011343FA681343FB607B681B687A69F8
:104AF0009A607B681B683A699A617B681B68FA68F0
:104B00001A627B68012283F846207B68012283F8C1
:104B10003E207B68012283F83F207B68012283F8D6
:104B200042207B68012283F843207B68012283F8BE
:104B30003D20002318461837BD4680BD80B584B09F
:104B400000AF786039607B6893F83E30FB737B6818
:104B500093F83F30BB737B6893F842307B737B687C
:104B600093F843303B733B68002B10D1FB7B012B48
:104B700002D17B7B012B01D0012369E07B680222FB
:104B800083F83E207B68022283F8422031E03B68B4
:104B9000042B10D1BB7B012B02D13B7B012B01D01D
:104BA000012355E07B68022283F83F207B680222C4
:104BB00083F843201DE0FB7B012B08D1BB7B012B3D
:104BC00005D17B7B012B02D13B7B012B01D0012343
:104BD0003EE07B68022283F83E207B68022283F855
:104BE0003F207B68022283F842207B68022283F800
:104BF00043203B68002B03D03B68042B08D00FE018
:104C00007B681B6801220021184600F0BDFD16E0FC
:104C10007B681B6801220421184600F0B5FD0EE0F8
:104C20007B681B6801220021184600F0ADFD7B68FF
:104C30001B6801220421184600F0A6FD00BF7B6816
:104C40001B681A687B681B6842F001021A60002327
:104C500018461037BD4680BD80B584B000AF78607F
:104C60007B681B68DB68FB607B681B681B69BB603B
:104C7000BB6803F00203002B20D0FB6803F00203A3
:104C8000002B1BD07B681B686FF002021A617B68E7
:104C900001221A777B681B689B6903F00303002BD2
:104CA00003D0786800F05BFA05E0786800F04DFA10
:104CB000786800F05EFA7B6800221A77BB6803F020
:104CC0000403002B20D0FB6803F00403002B1BD04F
:104CD0007B681B686FF004021A617B6802221A77F6
:104CE0007B681B689B6903F44073002B03D07868D2
:104CF00000F035FA05E0786800F027FA786800F0EF
:104D000038FA7B6800221A77BB6803F00803002B8F
:104D100020D0FB6803F00803002B1BD07B681B68C6
:104D20006FF008021A617B6804221A777B681B689F
:104D3000DB6903F00303002B03D0786800F00FFA5F
:104D400005E0786800F001FA786800F012FA7B68F4
:104D500000221A77BB6803F01003002B20D0FB68F9
:104D600003F01003002B1BD07B681B686FF0100250
:104D70001A617B6808221A777B681B68DB6903F479
:104D80004073002B03D0786800F0E9F905E07868FB
:104D900000F0DBF9786800F0ECF97B6800221A7704
:104DA000BB6803F00103002B0CD0FB6803F0010388
:104DB000002B07D07B681B686FF001021A617868CE
:104DC000FCF7C6FFBB6803F08003002B0CD0FB6828
:104DD00003F08003002B07D07B681B686FF0800214
:104DE0001A61786800F07CFDBB6803F04003002B7B
:104DF0000CD0FB6803F04003002B07D07B681B68D6
:104E00006FF040021A61786800F0BDF9BB6803F0EA
:104E10002003002B0CD0FB6803F02003002B07D0ED
:104E20007B681B686FF020021A61786800F04EFD05
:104E300000BF1037BD4680BD80B586B000AFF860BA
:104E4000B9607A600023FB75FB6893F83C30012B56
:104E500001D10223AEE0FB68012283F83C207B688D
:104E60000C2B00F29F8001A252F823F0A14E000803
:104E7000A54F0008A54F0008A54F0008E14E000807
:104E8000A54F0008A54F0008A54F0008234F0008B4
:104E9000A54F0008A54F0008A54F0008634F000864
:104EA000FB681B68B968184600F024FAFB681B68A9
:104EB0009A69FB681B6842F008029A61FB681B68EC
:104EC0009A69FB681B6822F004029A61FB681B6800
:104ED0009969BB681A69FB681B680A439A6164E0B8
:104EE000FB681B68B968184600F074FAFB681B6819
:104EF0009A69FB681B6842F400629A61FB681B6850
:104F00009A69FB681B6822F480629A61FB681B68DF
:104F10009969BB681B691A02FB681B680A439A619E
:104F200043E0FB681B68B968184600F0C9FAFB68E3
:104F30001B68DA69FB681B6842F00802DA61FB68EB
:104F40001B68DA69FB681B6822F00402DA61FB68FF
:104F50001B68D969BB681A69FB681B680A43DA6178
:104F600023E0FB681B68B968184600F01DFBFB686E
:104F70001B68DA69FB681B6842F40062DA61FB684F
:104F80001B68DA69FB681B6822F48062DA61FB68DF
:104F90001B68D969BB681B691A02FB681B680A4356
:104FA000DA6102E00123FB7500BFFB68002283F891
:104FB0003C20FB7D18461837BD4680BD80B584B0C7
:104FC00000AF786039600023FB737B6893F83C3056
:104FD000012B01D10223B4E07B68012283F83C203D
:104FE0007B68022283F83D207B681B689B68BB605E
:104FF000BB6823F07703BB60BB6823F47F43BB60CF
:105000007B681B68BA689A603B681B68B3F5005FF1
:105010003ED0B3F5005F00F28780B3F5805F00F00B
:105020008680B3F5805F7FD8702B1AD0702B7BD829
:10503000602B50D0602B77D8502B3CD0502B73D89E
:10504000402B58D0402B6FD8302B64D0302B6BD8EE
:10505000202B60D0202B67D8002B5CD0102B5AD08F
:1050600062E07B6818683B6899683B685A683B68EF
:10507000DB6800F069FB7B681B689B68BB60BB68F2
:1050800043F07703BB607B681B68BA689A604FE0A7
:105090007B6818683B6899683B685A683B68DB68BE
:1050A00000F052FB7B681B689A687B681B6842F4BF
:1050B00080429A603CE07B6818683B6859683B68AE
:1050C000DB681A4600F0C6FA7B681B685021184658
:1050D00000F01FFB2CE07B6818683B6859683B6850
:1050E000DB681A4600F0E5FA7B681B686021184609
:1050F00000F00FFB1CE07B6818683B6859683B6850
:10510000DB681A4600F0A6FA7B681B684021184647
:1051100000F0FFFA0CE07B681A683B681B681946D0
:10512000104600F0F6FA03E00123FB7300E000BF35
:105130007B68012283F83D207B68002283F83C20B5
:10514000FB7B18461037BD4680BD80B483B000AFEE
:10515000786000BF0C37BD465DF8047B704780B4B3
:1051600083B000AF786000BF0C37BD465DF8047BAC
:10517000704780B483B000AF786000BF0C37BD4685
:105180005DF8047B704780B483B000AF786000BFE7
:105190000C37BD465DF8047B7047000080B485B0D5
:1051A00000AF786039607B681B68FB607B68464AAB
:1051B000934213D07B68B3F1804F0FD07B68434A92
:1051C00093420BD07B68424A934207D07B68414AA6
:1051D000934203D07B68404A934208D1FB6823F096
:1051E0007003FB603B685B68FA681343FB607B6895
:1051F000354A93422BD07B68B3F1804F27D07B6830
:10520000324A934223D07B68314A93421FD07B6855
:10521000304A93421BD07B682F4A934217D07B6859
:105220002E4A934213D07B682D4A93420FD07B685D
:105230002C4A93420BD07B682B4A934207D07B6861
:105240002A4A934203D07B68294A934208D1FB68DB
:1052500023F44073FB603B68DB68FA681343FB6030
:10526000FB6823F080023B685B691343FB607B684B
:10527000FA681A603B689A687B68DA623B681A6869
:105280007B689A627B68104A934203D07B68124A1B
:10529000934203D13B681A697B681A637B680122D9
:1052A0005A617B681B6903F00103012B05D17B6800
:1052B0001B6923F001027B681A6100BF1437BD46E9
:1052C0005DF8047B704700BF00000140000400400F
:1052D00000080040000C0040000401400040014074
:1052E000004401400048014000180040001C0040FC
:1052F0000020004080B487B000AF786039607B68E0
:105300001B6A7B617B681B6A23F001027B681A625F
:105310007B685B683B617B689B69FB60FB6823F093
:105320007003FB60FB6823F00303FB603B681B68B2
:10533000FA681343FB607B6923F002037B613B68DF
:105340009B687A6913437B617B68204A934203D050
:105350007B681F4A93420CD17B6923F008037B6171
:105360003B68DB687A6913437B617B6923F0040344
:105370007B617B68154A934203D07B68144A934251
:1053800011D13B6923F480733B613B6923F40073C3
:105390003B613B685B693A6913433B613B689B69CE
:1053A0003A6913433B617B683A695A607B68FA68E3
:1053B0009A613B685A687B685A637B687A691A62AB
:1053C00000BF1C37BD465DF8047B704700000140FC
:1053D0000004014080B487B000AF786039607B681A
:1053E0001B6A7B617B681B6A23F010027B681A6270
:1053F0007B685B683B617B689B69FB60FB6823F4AF
:10540000E043FB60FB6823F44073FB603B681B6870
:105410001B02FA681343FB607B6923F020037B6166
:105420003B689B681B017A6913437B617B68224A56
:10543000934203D07B68214A93420DD17B6923F0CC
:1054400080037B613B68DB681B017A6913437B61E6
:105450007B6923F040037B617B68174A934203D04A
:105460007B68164A934213D13B6923F480633B6106
:105470003B6923F400633B613B685B699B003A69CD
:1054800013433B613B689B699B003A6913433B6153
:105490007B683A695A607B68FA689A613B685A6827
:1054A0007B689A637B687A691A6200BF1C37BD46C5
:1054B0005DF8047B704700BF00000140000401401C
:1054C00080B487B000AF786039607B681B6A7B610D
:1054D0007B681B6A23F480727B681A627B685B6856
:1054E0003B617B68DB69FB60FB6823F07003FB605A
:1054F000FB6823F00303FB603B681B68FA681343F7
:10550000FB607B6923F400737B613B689B681B0233
:105510007A6913437B617B68214A934203D07B689D
:10552000204A93420DD17B6923F400637B613B6881
:10553000DB681B027A6913437B617B6923F4806318
:105540007B617B68164A934203D07B68154A93427D
:1055500013D13B6923F480533B613B6923F400532F
:105560003B613B685B691B013A6913433B613B68E4
:105570009B691B013A6913433B617B683A695A6036
:105580007B68FA68DA613B685A687B68DA637B6833
:105590007A691A6200BF1C37BD465DF8047B70470C
:1055A000000001400004014080B487B000AF786083
:1055B00039607B681B6A3B617B681B6A23F48052FD
:1055C0007B681A627B685B687B617B68DB69FB6078
:1055D000FB6823F4E043FB60FB6823F44073FB604B
:1055E0003B681B681B02FA681343FB603B6923F4AA
:1055F00000533B613B689B681B033A6913433B6163
:105600007B68124A934203D07B68114A934209D1C6
:105610007B6923F480437B613B685B699B017A690A
:1056200013437B617B687A695A607B68FA68DA6148
:105630003B685A687B681A647B683A691A6200BFE3
:105640001C37BD465DF8047B704700BF0000014079
:105650000004014080B487B000AFF860B9607A60A0
:10566000FB681B6A7B61FB681B6A23F00102FB6815
:105670001A62FB689B693B613B6923F0F0033B6165
:105680007B681B013A6913433B617B6923F00A0382
:105690007B617A69BB6813437B61FB683A699A61F5
:1056A000FB687A691A6200BF1C37BD465DF8047B4F
:1056B000704780B487B000AFF860B9607A60FB686B
:1056C0001B6A7B61FB681B6A23F01002FB681A628D
:1056D000FB689B693B613B6923F470433B617B68DA
:1056E0001B033A6913433B617B6923F0A0037B6191
:1056F000BB681B017A6913437B61FB683A699A6155
:10570000FB687A691A6200BF1C37BD465DF8047BEE
:10571000704780B485B000AF786039607B689B6863
:10572000FB60FB6823F07003FB603A68FB6813437F
:1057300043F00703FB607B68FA689A6000BF143788
:10574000BD465DF8047B704780B487B000AFF86059
:10575000B9607A603B60FB689B687B617B6923F47E
:105760007F437B613B681A027B681A43BB68134323
:105770007A6913437B61FB687A699A6000BF1C37C2
:10578000BD465DF8047B704780B487B000AFF86019
:10579000B9607A60BB6803F01F03012202FA03F3C9
:1057A0007B61FB681A6A7B69DB431A40FB681A62FB
:1057B000FB681A6ABB6803F01F03796801FA03F3F8
:1057C0001A43FB681A6200BF1C37BD465DF8047BB4
:1057D0007047000080B485B000AF786039607B68A6
:1057E00093F83C30012B01D102235AE07B6801225F
:1057F00083F83C207B68022283F83D207B681B688D
:105800005B68FB607B681B689B68BB60FB6823F080
:105810007003FB603B681B68FA681343FB607B689E
:105820001B68FA685A607B681B68214A934222D041
:105830007B681B68B3F1804F1DD07B681B681D4AD5
:10584000934218D07B681B681B4A934213D07B6835
:105850001B681A4A93420ED07B681B68184A934211
:1058600009D07B681B68174A934204D07B681B6889
:10587000154A93420CD1BB6823F08003BB603B68A0
:105880005B68BA681343BB607B681B68BA689A6040
:105890007B68012283F83D207B68002283F83C204E
:1058A000002318461437BD465DF8047B704700BFDF
:1058B000000001400004004000080040000C0040CF
:1058C00000040140004001400018004080B483B053
:1058D00000AF786000BF0C37BD465DF8047B7047B1
:1058E00080B483B000AF786000BF0C37BD465DF870
:1058F000047B704780B483B000AF03463960FB710E
:1059000097F90730002B0ADB3B68DAB20C4997F9AC
:1059100007301201D2B20B4483F800230AE03B683F
:10592000DAB20849FB7903F00F03043B1201D2B24B
:105930000B441A7600BF0C37BD465DF8047B7047F8
:1059400000E100E000ED00E080B500AF054B1B6812
:1059500001F0FEFC0346012B01D002F0E5FA00BF86
:1059600080BD00BF10E000E080B500AF00216FF007
:105970000400FFF7BFFF00BF80BD000080B483B00C
:1059800000AFEFF305833B603B68002B03D06FF063
:1059900005037B600CE00A4B1B68002B05D1084B0C
:1059A00001221A6000237B6002E04FF0FF337B602E
:1059B0007B6818460C37BD465DF8047B704700BF16
:1059C0007805002080B582B000AFEFF305833B601F
:1059D0003B68002B03D06FF005037B6010E00B4B9E
:1059E0001B68012B09D1FFF7BFFF084B02221A6089
:1059F00001F066F800237B6002E04FF0FF337B602C
:105A00007B6818460837BD4680BD00BF780500207A
:105A100080B58EB004AFF860B9607A6000233B6156
:105A2000EFF305837B617B69002B7ED1FB68002B44
:105A30007BD080233B621823FB6100237B624FF005
:105A4000FF33BB617B68002B45D07B681B68002B54
:105A500002D07B681B687B627B689B69002B02D04D
:105A60007B689B69FB61FB69002B08D0FB69382BC5
:105A700005D87B685B6803F00103002B01D000238D
:105A800054E07B685B69002B03D07B685B699B08F3
:105A90003B627B689B68002B0ED07B68DB685B2BCE
:105AA0000AD97B681B69002B06D07B685B69002BD9
:105AB00002D00123BB6110E07B689B68002B0CD1F6
:105AC0007B68DB68002B08D17B681B69002B04D145
:105AD0000023BB6101E00023BB61BB69012B10D136
